:020000040800F2
:1000000010130020CD000008F5100008591000085A
:1000100000000000000000000000000000000000E0
:100020000000000000000000000000009D1100081A
:100030000000000000000000711100089512000887
:10004000DF000008DF000008DF000008DF00000814
:10005000DF000008DF000008DF000008210F0008B3
:1000600000000000DF000008DF000008DF000008DB
:10007000DF000008DF000008DF000008DF000008E4
:10008000DF0000080000000000000000DF000008A2
:10009000DF000008DF000008DF000008DF000008C4
:1000A000DF000008DF000008DF0000085515000829
:1000B00085150008DF0000080348854600F0F8FABF
:1000C0000048004793290008101300200448804787
:1000D00004480047FEE7FEE7FEE7FEE7FEE7FEE72F
:1000E000DD120008B900000830B50B4601460020BB
:1000F0002022012409E00D46D5409D4205D31D462E
:100100009540491B2546954040191546521E002D25
:10011000F1DC30BD03460B439B0703D009E008C95F
:10012000121F08C0042AFAD203E00B780370401CA7
:10013000491C521EF9D27047D2B201E00270401C35
:10014000491EFBD270470022F6E710B513460A4657
:1001500004461946FFF7F0FF204610BD421C017807
:10016000401C0029FBD1801A704700000EB5C21751
:10017000C10F5040CA0740180021054B029301925D
:1001800000910A460B4600F0E2F803B000BD000003
:10019000330400004A0009030123090B1B0519431E
:1001A000094B10B5520D9A4201DA002010BD064BE2
:1001B00034339A4203DC9A1A00F00AF810BD03495E
:1001C0005118884010BD0000FF030000CDFBFFFF69
:1001D00010B5202A04DB0846203AD040002110BD8B
:1001E0000B46D340D0402024A21A91400843194620
:1001F00010BD704710B500F0AFFC00F0FDFC10BD65
:1002000020220115F0B51FB488B00B99099800247D
:1002100048400999C00F490049080991C0070B9946
:100220000090490049080B9109990898A64608438F
:100230001CD00B990A98084318D009980124400053
:10024000420D4800410D099824050003000B20438E
:1002500009900B980003000B20430B9050181C4989
:100260004018002201901446104605E00020014687
:100270000DB0F0BD032801DA034600E003239C46DD
:10028000C11A0AAE0AE05F0008ADED5B4F00F75BF4
:100290007D430027AA187C41491C5B1E6145F2DDA5
:1002A000410004AB5A522104120C0A43240C401C96
:1002B0000828DFDB019802900099704601910090B8
:1002C000059B049A0799069800F041F8D0E70000D2
:1002D0000DFCFFFFF0B51FB40646002082B00546B6
:1002E0004024019100901BE0019922460F463046C0
:1002F000FFF76EFF049A059B801A994110D31046B0
:100300001946224600F0E6F9361A8F410197224637
:1003100001200021009F00F0DDF938184D410090C8
:100320002046641E0028DFDC019B009829463246E7
:1003300007B0F0BD10B5002B08DA0024401C614165
:1003400092185B411A4301D14008400010BDF0B53E
:100350001FB482B005460C0003D0084601F064F9D2
:1003600002E001F061F92030024600902146284663
:1003700000F0B0F9049B059A04460F461843114358
:10038000084314D0184610431BD0009840210A1A85
:1003900018460599FFF71CFF05460E46009A059979
:1003A000049800F097F9084305D0012004E02046A6
:1003B000394607B0F0BD0020C11705430E432C435A
:1003C000374300990E986305401A7905E40A002224
:1003D0000C43FD0A0A3002D500200146E9E7010579
:1003E000101969410C9C0D9D00196941FFF7A2FF8E
:1003F000DFE70000F0B507460846584087B0C00F59
:10040000049048000E46590040084908BC1A88412B
:1004100005D2384631461E4617460B46024658005E
:10042000400810434CD0300D039040055900400D5A
:10043000490D0590401A0290402872DA18030121F4
:10044000000B09050843019004980092002805D08C
:100450000199524200208841009201900298402167
:100460000A1A0199009800F035F905460C466B46CA
:1004700007CB00F03FF9C0197141039A0E0D00231C
:10048000D71756401A467A40164344D0049A002A99
:100490002DD0029A012A039A15DC1205C01A914147
:1004A00001263605001C7141D20F059ED20700932C
:1004B000019202962A462346FFF749FF07B0F0BD96
:1004C00038463146FAE71605224A0F46B218C01AD6
:1004D000B74101210905001C4F4100187F41114619
:1004E00018187941E20F10436D19644113E0E207D7
:1004F0006D0815436408C2071443039A01261205C8
:10050000C01A91413605001C7141CE0740083043A6
:100510004908C01851412A462346FFF70BFFCDE793
:10052000FFE7049801224000C117121A00238B41F3
:1005300004983146C417381AA141EEE730B40124BB
:10054000E407634030BC55E730B40124E407614060
:1005500030BC4FE70000E0FFF0B50C465C4085B0D2
:10056000E40FE40703944C00002664085900944605
:10057000490802460296224321D062460A431ED011
:100580006200570D4A000E032303550D0124024655
:100590002C492405781B1B0B360B4018234326439C
:1005A000614600901C46501AB44103D30098401C89
:1005B000009002E0921800985B41002803DA0020C6
:1005C000014605B0F0BD0020012109050746864619
:1005D00011E064461D46141BB54106D36546521B07
:1005E000B341744607430C43A646CD07400849086B
:1005F000284392185B4105460D43EAD11046184343
:1006000013D06046194650407140084306D06046FA
:10061000101AB34106D20122002306E00022012372
:10062000DB0702E00122D243531000987446010513
:10063000381C6141029C039D00196941FFF77AFE55
:10064000BFE70000FD0300004A0009030123090B76
:100650001B0519430A4B10B5520D9A4202DA0020CD
:10066000014610BD064B34339A4203DC9A1AFFF759
:10067000AFFD10BD034BD21800F02CF810BD0000E8
:10068000FF030000CDFBFFFF10B5002904DB0124B0
:10069000E40740428C412146002B04DB1C46012329
:1006A000DB075242A341994200D1904210BD0000A5
:1006B000064C0125064E05E0E36807CC2B430C3CB5
:1006C00098471034B442F7D3FFF7FAFCE03C000837
:1006D000003D000810B5202A04DB0146203A914075
:1006E000002010BD914020239C1A0346E34019438B
:1006F000904010BD10B5202A06DBCB170846203AE3
:100700001041C1170B4306E00B461341D040202493
:10071000A21A91400843194610BD0000F3B58BB0F2
:100720000D460B98002803D0002D01D0102D01D9C3
:100730000DB0F0BD2A4607A80B99FFF7EBFC684601
:10074000007F06906846467F877F681EC1B207A873
:1007500003F00EF905900698112800D0E8E7681E0E
:1007600007A9095C0598814203D01F2000F017FDFE
:10077000DEE7792000F013FD022E01D0042E74D1A3
:100780003B0000F068FF10090A0B0C0D0E888888EA
:10079000880F8888881087887EE07DE07CE07BE099
:1007A0007AE079E078E008A80478412C15D141205E
:1007B00002F0D6FE0490042204A97048FFF7AAFCB8
:1007C0006E48401E04700522014602A8FFF7A2FCF5
:1007D0000399029800F072FB5BE0122C15D11220F5
:1007E00002F0BEFE0490042204A96448FFF792FCC4
:1007F0006248401E04700522014602A8FFF78AFCE9
:100800000399029800F05AFB43E0112C1BD15C487D
:100810000078012804D102F05BFF5949C87107E054
:1008200057480078002803D102F052FF544908725B
:100830000E20534A009007CA0B23039202910190A5
:1008400000F00CFC25E0012C05D102F007F8039024
:1008500001F0A8FF1DE0142C08D102F00DF81422BD
:100860001621039000F0B0FB13E016E0152C07D121
:1008700001F0FEFF32223421039000F0A5FB08E0D6
:10088000172C06D101F0F0FF60226221039000F0E6
:100890009BFB01E000E000BF6EE0032E01D0052EBF
:1008A00052D16846C07F0390152F29D006DC102F47
:1008B00009D0122F1AD0132F43D11CE01A2F3FD08A
:1008C0001E2F3ED121E0039802280CD02C4903981A
:1008D00008700A4607CA6B4607C300F069FC039814
:1008E00002F072F801E002F0AEFD2BE01220039955
:1008F00001F07CFF26E01320039901F077FF21E04F
:100900001520039901F072FF1CE008A80078162852
:1009100006D108A840780290029801F0F7FC0EE09A
:1009200008A8007805280AD1164B002216497D2018
:10093000C00000F017FD1348007800F0BFFD01E093
:1009400000E000BF00BF17E0082E12D108A9887888
:10095000000649780904084308A9097809020843F0
:100960006946C97F084304901F2F00D100E000BFF3
:1009700002E01F2000F013FC00BFD9E615000020A4
:100980004C040020190000201921000810B502F0C5
:100990000EF801F0D7FC01F05BFF02F00FFB10BD79
:1009A00010B51421002000F0B4F800220249022002
:1009B00000F09EF810BD00003D20000800B500F0DA
:1009C00003F80246104600BD014908687047000060
:1009D0004800002010B5FFF7D9FF00F067F8FFF7D7
:1009E00009FC00F035FAFFF7DBFF10BD0FB438B596
:1009F000002400BF0498002801D101241BE005A8B1
:100A00000090FF2101310F48009B049A00F0FAFD8D
:100A1000002000900B48FFF7A1FBFA2801D903241E
:100A200009E00848FFF79AFB05462946054801F00A
:100A300015FB044600BF00BF204638BC08BC04B00C
:100A4000184700005504002010B514480068401CE9
:100A50001249086012480068401C114908600846A5
:100A600000680A2818D3002008600E480068401C5F
:100A70000C49086000240AE0A0000B49085800282F
:100A800000D106E0A100084A50588047641C082C99
:100A9000F2D300BF00F006F910BD000048000020AE
:100AA0004C000020500000205805002010B57D218A
:100AB000C9000C480068FFF717FB0446601E0A498E
:100AC000884200D90CE0601E084948610321081FD4
:100AD00000F012FB0020054988610720086100BF73
:100AE00010BD000064000020FFFFFF0000E000E0F8
:100AF000F8B505460E461446284601F039FF07466C
:100B00003146384600F06CF92146384600F090F93D
:100B1000F8BDF8B505460C460026002C01D1182674
:100B200007E0284601F024FF07462146384600F03A
:100B300067F93046F8BD000010B50549054802F0D8
:100B40001FFE0446002C02D0012000F071FA10BDF7
:100B5000780500200038014000B589B00121480423
:100B600002F07AF80121880302F0A6F80122092197
:100B7000C80601F0DBFE01220A210920C00601F0AF
:100B8000D5FE032040020190022168460172032134
:100B90004172002181720121C17201A90920C006A0
:100BA00001F072FE124802F0F9FEE12040020390CB
:100BB000002004900590069008900C20079003A94F
:100BC0000B4802F083FF1B21684601700021417031
:100BD0000121817001F0C8FF0121054802F060FF8A
:100BE00001220449024802F0F6FF09B000BD0000EE
:100BF000003801400501050000B589B00121480415
:100C000002F02AF80121480402F036F801220221FC
:100C10000920C00601F08AFE012203210920C00636
:100C200001F084FE0C20019002216846017203212C
:100C3000417200218172C17201A90920C00601F030
:100C400023FE154802F0AAFEE12040020390002096
:100C500004900590069008900C20079003A90E4878
:100C600002F034FF1C21684601700021417001210F
:100C7000817001F079FF0121074802F011FF002285
:100C80000649054802F0A7FF00220549024802F084
:100C9000A2FF09B000BD00000044004005010500AE
:100CA0000701070070B5002400BF64E0E520800064
:100CB0006043324940180921890140180089002801
:100CC00058DDE520800060432C4940180921890146
:100CD00040180089401E81B2E52080006043274A09
:100CE00080180922920180180181E520800060436C
:100CF0002249401811464018008900283AD1E523BE
:100D00009B0063431D4D5B190D465B199A88E523D3
:100D10009B006343194D5B19D91DFD31E5239B00F1
:100D200063435B19164D5819FFF7F4F9E52080006D
:100D30006043124940180921890140188188E52043
:100D4000800060430D4A80180722D201801841813B
:100D5000E0B2002802D100F06BF900E000BF00BF54
:100D60000021E52080006043044A80180922920196
:100D700080188180641C002C98D070BD78050020FC
:100D80004A020000F8B504460E46174600BF104858
:100D900000680090E521890061430E4A88183A46B0
:100DA000314602F065FD0546002D0FD1002C0DD116
:100DB000A1006A4650580122074902F00CFF00BF0B
:100DC0004021064802F078FE0028F9D02846F8BDF8
:100DD000DC3C0008780500200701070000380140CE
:100DE00010B502460020E5239B005343034C1B191A
:100DF0000724E4011B19D96010BD0000780500200C
:100E000070B504460D4600260A2128460930FFF732
:100E10006BF981B2E52080006043044A8018092202
:100E200092018018C180304670BD00007805002016
:100E300010B502460020E5239B005343034C1B19C9
:100E40000724E4011B19196110BD0000780500207A
:100E500010B5E52189000648FFF775F9054900201E
:100E600000F0F0F80349012000F0ECF810BD00009C
:100E7000780500202537000810B50A210020FFF76B
:100E800048FE034A03490020FFF732FE10BD000070
:100E9000F30100081D07000810B514210120FFF719
:100EA00038FE034A03490120FFF722FE10BD00006F
:100EB000DD100008C11000087047000013B584B0B1
:100EC000002000900190029003900524A01C0F28A0
:100ED00005DD21460FA0FFF789FD06B010BD1121E9
:100EE00068460170072141700E218170052204A916
:100EF000C01CFFF70FF9E01CC1B2684602F038FDD4
:100F0000E11C6A465054221D69460020FFF73AFF53
:100F100000BFE2E76C656E2025640D0A000000004A
:100F200010B5402001F0AAF9002810D0402001F0AF
:100F30009FF9402001F018F800201C4988711C49D5
:100F400008801C4908701C48007800F0B7FA80201F
:100F500001F094F900280FD015480088401C14496E
:100F6000088008460088012803DC1448007800F057
:100F7000A5FA802001F07CF90120C00201F07EF981
:100F8000002811D00120C00201F072F901F0B0F880
:100F9000FFF714FD0A49086002F055FA0948007885
:100FA00000F0B6FA01F0AEF810BD00004C040020CD
:100FB0002A000020440000202800002029000020F2
:100FC000040000200C00002070B5A0B005460E46BD
:100FD000144680216846FFF7B6F811216846017073
:100FE00046700E21817022462946C01CFFF792F8F8
:100FF000E01CC1B2684602F0BBFCE11C6A465054DA
:10100000221D69460020FFF7BDFE20B070BD000024
:10101000002007E00021C200044B9954C200D218FE
:101020005160401C0628F5D37047000020010020C5
:10103000062803DA0121C200014B995470470000D1
:1010400020010020062803DAC200024BD2185160AA
:10105000704700002001002000BFFEE77FB584B08C
:101060001D460C9E002000900190029003900924E0
:10107000A01C0F2805DD21460EA0FFF7B7FC08B025
:1010800070BD11216846017045708670092204A95F
:10109000C01CFFF73FF8E01CC1B2684602F068FCD4
:1010A000E11C6A465054221D69460020FFF76AFE83
:1010B00000BFE4E76C656E2025640D0A00000000A7
:1010C00070B504460D4600220249034802F083FD34
:1010D00070BD0000050105000044004010B500226D
:1010E0000249034802F077FD10BD00000701070028
:1010F000004400407047000010B5002819DA1A4A71
:1011000003071B0F083B9B089B00D2588307DC0E8C
:10111000FF23A3409A438B071B0E8407E40EA340D2
:101120001A43114B0407240F083CA408A4001A51C9
:1011300018E00E4A03231B02D21883089B00D258E2
:101140008307DC0EFF23A3409A438B071B0E840703
:10115000E40EA3401A43054B032424021B19840800
:10116000A4001A5110BD00001CED00E000E100E0F9
:101170007047000010B502F076F9642000F098FF87
:1011800005480078012801D001F086F800F0D4FE6F
:1011900000F09AFF10BD00000E000020704738B527
:1011A00004460094012269460020FFF7EBFD38BD9C
:1011B00017B585B000200190029003900490092497
:1011C000A01C0F2805DD21460FA0FFF70FFC08B07B
:1011D00010BD1121684601710B2141710F218171F0
:1011E000092205A9C01DFEF795FFE01CC1B201A8A8
:1011F00002F0BEFBE11C01AA5054221D01A90020EF
:10120000FFF7C0FD00BFE2E76C656E2025640D0AA4
:101210000000000011201D4908601D4840681C495D
:101220004860084640684860084640687B21C9031A
:10123000884317494860084640680521C9040843A7
:10124000134948600846006801210906084310490F
:10125000086000BF0E4800680121490608400028C8
:10126000F8D00B484068800880000949486008466B
:101270004068022108430649486000BF04484068AE
:101280000C2108400828F9D17047000000200240D6
:101290000010024010B5FFF7D7FB02F0A3F810BD15
:1012A00010B5002415E0E0000B49085C00280FD0C1
:1012B0000020E100084A5054E00011464018406800
:1012C000002805D0E0B2E2000B46D21851688847EA
:1012D000641C062CE7D310BD2001002010B51B486C
:1012E0000068012108431949086008464068184908
:1012F00008401649486008460068164908401349E6
:101300000860084600680121890488430F49086085
:10131000084640683F21090488430C494860084654
:10132000C06A00090001C8620846006BFF21543101
:101330008843064908630846406B400840004863FC
:1013400000208860FFF766FF10BD0000001002401B
:101350000CB8FF08FFFFF6FE10B5FFF759FE00F0CE
:1013600059F810BDFEB504460D4616461F4600202E
:10137000019033462A462146009700F003F8019079
:101380000198FEBDF8B505460C460020009000BF50
:10139000002C02D13F20009036E0002A02D101202B
:1013A000009031E00698002802D1012000902BE047
:1013B00000211EE014204843154E305C002816D151
:1013C000012614204843124F3E54142048433E4601
:1013D0008019457014204843801944601420484304
:1013E0008019C260142048438019036103E0481C3F
:1013F000C1B21929DEDB00BF192902D13D200090BE
:1014000002E00698017000BF00BF0098F8BD000020
:101410005001002010B5FF21F5310748FEF793FE7B
:10142000002406E0002114206043034A1154601C8C
:10143000C4B2192CF6DB10BD50010020F8B5002015
:101440000090002435E00026FFF7B8FA0546142086
:1014500060431949085C022824D1142060434018D5
:1014600080682F1A1420604340184068B84219D889
:101470001420604340184078012804D114206043B0
:101480004018856004E00321142060430A4A115487
:101490001420604308494018C6681420604340186F
:1014A00000690090002E02D020460099B047601CD1
:1014B000C4B2192CC7DBF8BD5001002070B5054639
:1014C000002600BF192D01DB3C261CE02C46142011
:1014D00060430E49085C002801D13E2613E0142029
:1014E00060430A49085C022801D140260BE0FFF75F
:1014F00065FA14216143054A891888600221142085
:101500006043115400BF00BF304670BD5001002041
:1015100030B50146002000BF192901DB3C2014E052
:101520000A46142353430A4CE35C002B01D13E20AE
:101530000BE014235343064CE35C032B04D0032439
:1015400014235343024DEC5400BF00BF30BD0000D4
:101550005001002010B50849084802F05DFB002842
:1015600006D00549054802F02DFB0120044908700A
:10157000FFF7E2FA10BD0000160314000038014026
:101580004500002010B51049104802F045FB012825
:1015900019D10F48007808280BDA0C4802F0F4F94A
:1015A000C1B20B480478601C094A10700948015503
:1015B00009E007480078082805D10120064908708D
:1015C00000200349087010BD0501050000440040DB
:1015D0001A0000201C0000201B000020F8B5054662
:1015E0000E4614460027002C09D0284601F0C0F909
:1015F0000090224631460098FFF7C4FB0746384664
:10160000F8BD00007CB51C461546491E01910090AE
:10161000044B6A462146284600F0E6F8009A00216D
:1016200011707CBD211F00082021020C01D0102167
:101630001046020A01D010460839020901D01046AE
:10164000091F820801D01046891E420801D0881E59
:101650007047081A704730B47446641E2578641CBD
:10166000AB4204D3635D5B00E31830BC18471D46F2
:10167000F8E702E008C8121F08C1002AFAD1704733
:101680007047002001E001C1121F002AFBD1704702
:10169000F0B51FB484B007980699020D014314D029
:1016A0004A484B491018484305140F9801280E98D2
:1016B0001CD0281A401C0024464E47490094019132
:1016C0000290002814DA474227E00F98012443A330
:1016D000012808D0002104980F9A84600360C2603A
:1016E000416009B0F0BD0E98C143F4E74042E2E723
:1016F000074612E0F80707D02246334601990098C2
:10170000FEF780FD019100902246334610461946AF
:10171000FEF778FD04460E467F10002FEAD10298AE
:10172000019B0028009A0799069802DAFEF76AFDE5
:1017300001E0FEF711FF04460E460022284BFEF79B
:10174000A3FF03D80020C043014607E00022254B39
:1017500020463146FEF74EFEFEF776FF102409E0E4
:10176000002C0ADB0A220023FEF7B4FD059B303271
:101770001A55641E02460A43F2D11122641C059BCD
:10178000121B1C190F9B012B03D0012308430ED100
:101790000AE0084304D011200E9000200F9084E747
:1017A0000E98151A6D1E0BE00E98824202DD002382
:1017B0006D1C03E0824201DA00236D1E002BEED087
:1017C00004980F998260C16030C08AE701FCFFFF76
:1017D000104D0000000024400000F03F30000000E9
:1017E0000000F0430000E03FFFB597B0064600253B
:1017F00018E2252877D100242746FD49049400E00B
:101800000443761C32780120203A90400842F7D1F8
:1018100030782A280ED00222307801463039092942
:1018200016D804990A235943303940181443761CBA
:101830000490F1E7189802C804911890002904DA7E
:101840000120400304434842049002200443761CD4
:1018500030782E2814D1042004437078761C2A286E
:1018600009D11898761C80C8189009E00A214F43C6
:10187000303FC719761C3078014630390929F5D92F
:1018800030786C2810D006DC4C281AD068280ED08E
:101890006A2817D104E0742813D07A2812D110E0F6
:1018A0000120400504430CE00121090501E003216A
:1018B00009050C437178814203D1012000052418E9
:1018C000761C761C3078119066280BD013DC5828D3
:1018D0007DD009DC00287BD04528F6D04628F4D0FE
:1018E00047281AD1A5E118E0632835D0642870D0C4
:1018F000652812D19DE170286CD008DC6728F1D0F2
:1019000069287BD06E280DD06F2806D1BAE07328E5
:101910002ED0752871D0782859D01A9A19999047E5
:101920006D1C7EE16002400F022809D003280DD013
:101930000428189801680DD00D60001D189070E102
:101940001898EA1701680D604A60F6E71898016870
:101950000D80F2E70D70F0E718986A460178117271
:10196000001D18900020507202A80090012005E090
:10197000189802C8189000200091C04361070DD547
:10198000002101E00199491C0191B94212DA81421A
:10199000F8DB009A515C0029F4D10BE0002101E052
:1019A0000199491C01918142FADB019A0099895CF5
:1019B0000029F5D1019904981A9B471A2146384607
:1019C000199A00F097FA0199401945180BE04FE079
:1019D0002CE113E04EE0009800990078491C00913A
:1019E0001A9A199990470198401E0190401CF2D113
:1019F000214638461A9B199A10E137E00A20002147
:101A0000009001916002410F022907D0189A01CA83
:101A10001892C2179446032908D00AE01898C01DEE
:101A2000C108C90005C91891944607E000B2C21761
:101A30009446042902D140B2C1178C460022614667
:101A4000944506DA0A460021404291418C462D21F8
:101A500002E0210504D52B216A461173012103E020
:101A6000E10701D02021F7E7029155E00A200AE0C2
:101A7000102008E010200090002104200443019170
:101A8000082703E008200021019100906002410F27
:101A9000022907D0189A01CA1892002294460329F5
:101AA00008D008E01898C01DC108C90005C91891E0
:101AB000944603E080B2042900D1C0B20021029113
:101AC000210729D51199702906D0009A1021019B70
:101AD0004A401A4305D00EE040216A4611730121A5
:101AE00008E06146014306D030216A46117311991E
:101AF000517302210291009A0821019B4A401A4326
:101B00000AD16146014301D1610705D530216A46FA
:101B1000117301217F1E02911199582904D035A11A
:101B20000E910DA90D910DE037A1F9E76146019BDA
:101B3000009AFEF7CFFB0E9B8C469B5C0D9A521EC3
:101B40000D92137061460143F0D10D9805A9081A52
:101B500020300190600703D501200004844300E099
:101B600001270198874201DD381A00E00020019921
:101B700000904118029809180498401A0490E00354
:101B800006D421461A9B199A049800F0B3F9451916
:101B9000002706E003A81A9AC05D199990476D1CAA
:101BA0007F1C02988742F5DBE0030CD521461A9B87
:101BB000199A049800F09EF9451904E01A9A302009
:101BC000199990476D1C0099481E00900029F5DC7A
:101BD00008E00D980D990078491C0D911A9A1999F1
:101BE00090476D1C0199481E01900029F1DC63E1CA
:101BF00009280100303132333435363738396162E3
:101C000063646566000000003031323334353637A6
:101C100038394142434445460000000000F05AF97B
:101C20004519761C3078002800D0E2E528461BB024
:101C3000F0BD600700D406271898C01DC108C90070
:101C400048680A680831C30FDB071891190001D0F2
:101C50009CA108E0210501D59BA104E0E10701D08A
:101C60009AA100E09AA1430011985B0810916528A1
:101C70000CD006DC452809D046281DD0472841D184
:101C800041E0662818D067283CD13CE00021112FA4
:101C900001DB112000E0781C0191009008A911A837
:101CA000FFF7F6FC139905910021119A15927F1CFC
:101CB00012980197009150E00120C0070390012085
:101CC000019008A9009711A8FFF7E2FC139A149954
:101CD00005920022119B009212981593059A019289
:101CE000002901D0104602E0791C40180190381AF2
:101CF00001D5019804E04042401E0090781C0190FC
:101D0000C01B029043E0012F00DA01270021112FB0
:101D100001DD112000E038460191009008A911A8CA
:101D2000FFF7B6FC13990591119A002112981592AC
:101D30000091019721070CD40599B94201DB019963
:101D400000E00191012904DD159A491E515C3029FA
:101D500006D0B84201DA011D05DA0121029115E031
:101D60000199491EEDE7002805DC00994118009112
:101D70000199091A03E0019A411C914200DD019189
:101D80000099401A401C02900120C00703902007D0
:101D900006D402990198814202DB0020C0430290E0
:101DA00000206946C87707AF012103980337C907A8
:101DB000884224D0022011902B20129003980028F2
:101DC0000CDA404203902D20129007E00A2103987C
:101DD000FEF78AF930317F1E039039701199481E41
:101DE00011900029F2DC03980028EFD1791E129897
:101DF00008703078202108404530BF1E387006A892
:101E0000C01BC01D039010980078002800D001204E
:101E1000019941180298C0170918039809180498E5
:101E2000401A401E0490E00306D421461A9B199ADA
:101E3000049800F05FF8451910980078002803D046
:101E40001A9A199990476D1CE00324D521461A9BD4
:101E5000199A049800F04EF845191CE000980028E3
:101E600007DB00990598884203DD1598405C1999B5
:101E700001E0199930201A9A904700986D1C401C77
:101E800000900298401E0290002804D11A9A2E2039
:101E9000199990476D1C0199481E01900029DDDCBD
:101EA00005E038781A9A7F1C199990476D1C0399A0
:101EB000481E03900029F4DC21461A9B199A0498C5
:101EC000ACE600002D0000002B0000002000000008
:101ED00000000000F8B5044600251E461746880499
:101EE00004D405E039462020B0476D1C641EF9D5A6
:101EF0002846F8BDFFB50446002581B01E46C8033C
:101F000001D5302700E02027880404D505E03846B5
:101F10000399B0476D1C641EF9D5284605B0F0BD85
:101F20004A68002A06D00A68531C0B601070486883
:101F3000401E4860704700003EB540210920C006A1
:101F400000F0EAFC0446002C02D10120054948704B
:101F5000092204496846FEF7DDF8684607C8FFF71E
:101F600027F93EBD4C0400201CB50446684600F02D
:101F7000C5F90094684600F037F91CBD1CB5284827
:101F8000009001216846017100218171C171417188
:101F900069460920C00600F077FC21490920C006E7
:101FA00000F070FC1F480090032168460171002179
:101FB0008171C171417169460920C00600F064FC5D
:101FC00018490920C00600F05BFCFF20813000901A
:101FD00001216846017100218171C1714171694619
:101FE000114800F051FCFF2181310F4800F04AFCFC
:101FF0007F20009003216846017100218171C17129
:1020000041716946084800F03FFC0021012080042E
:1020100000F022FE00210120400400F02DFE1CBD36
:10202000738000008C7900000004004810B5FEF7B2
:1020300023FFFEF731FFFEF73FFF10BD70B50446EA
:102040000D4605480068002804D029462046024A6B
:102050001268904770BD00002400002070B5C0B029
:1020600005460C460026112168460170A01CC1B22D
:1020700068464170EE21817022462946C01CFEF759
:1020800049F8E01CC1B2684601F072FCE11C6A46E6
:10209000505400BF221D69460020FFF79FFA0646F4
:1020A0001A2EF7D000BF00BF304640B070BD000010
:1020B00001B504490098086000BF02480068002884
:1020C000FBD108BD1000002010B5034B00220349CE
:1020D0000348FFF747F910BD0C000020E520000879
:1020E000AC0D000070B504460D4601F0ACF970BDB2
:1020F000034800680121C90288430149086070470C
:1021000000040140034800680121C9020843014955
:10211000086070470004014070B504460D460FA0EA
:10212000FEF764FC6420FFF7C3FF4020FFF71CFFAD
:10213000FFF724FF00F01CF801F0AAFD00F0DEFE1E
:10214000FEF758F800F0FEF800F038FF402000F0ED
:1021500043FD04A0FEF74AFC70BD0000736C65658A
:10216000700D0A0077616B652075700D0A00000024
:1021700010B5002219491A4801F02DFD0021184818
:1021800001F08EFC01214905154801F078FD01217F
:10219000134801F085FC00BF01218905104801F0BA
:1021A0008BFC0028F8D001210D4801F05CFD0122D4
:1021B0000C490B4801F00FFD0121080700F05CFD00
:1021C00000BF01210904064801F076FC0028F8D17F
:1021D0000121084600F00EFD10BD000005010500BC
:1021E0000038014016031400002120498279002A9A
:1021F00035D00A46126803689A430B461A600A46AD
:10220000526803689A430B465A60027951180A686B
:1022100003681A430A60154A926803689A43134B8D
:102220009A601A46D26803689A43104BDA60427982
:10223000102A0CD11A46926803681A430B4B9A6015
:102240001A46D26803681A43084BDA600DE0074962
:10225000427951180A6803681A430A6005E0027956
:1022600051180A6803689A430A60704700040140E5
:102270000149486170470000000401400146002008
:10228000044A52690A40002A01D0012000E00020DF
:10229000704700000004014000B585B001214804EA
:1022A00000F0DAFC0121084600F006FD0120C00222
:1022B0000390002168460174C17403A90920C00677
:1022C00000F0E2FA0B21002000F058FE0120C002CD
:1022D000019000216846017208214172012181723A
:1022E00001A8FFF781FF07216846017000214170B6
:1022F0000121817000F038FC05B000BD00210160B3
:1023000001710C21417100218171704710B50446A3
:10231000002C04D0012C0AD1084908700BE00020E1
:102320000649087060210648FDF70DFF03E0002014
:102330000249087000BF00BF10BD00000E00002061
:10234000BE00002010B500F0A9F900F043F800F03D
:102350008FF800F011F910BD70B50546002D07D1BA
:1023600000F0CAF80646002000F064FE044617E0BC
:10237000012D08D10E2000F0BFF806460A2000F01B
:1023800059FE04460CE0022D08D10D2000F0B4F8EF
:1023900006460A2000F04EFE044601E00A2070BD09
:1023A000FF2E03D0FF2C01D02846F8E70A20F6E7DD
:1023B00010B50446002C05D0FF210131044800F07F
:1023C00061FA04E0FF210131014800F059FA10BD23
:1023D000000400481CB50121880400F03DFCFF20EA
:1023E00001300090012168460171032141710021F3
:1023F0008171C1716946024800F046FA1CBD0000B7
:102400000004004810B5034B002203493220FEF7B8
:10241000A9FF10BD280000201D240008FEB50546B8
:102420000E4640210920C00600F076FA0446012C31
:1024300009D1002000F0FEFD002000F05DF8002032
:102440000A49487004E0002C02D101200749487075
:10245000092206496846FDF75DFE684607C8FEF793
:10246000A7FE402000F0B8FBFEBD00004C04002099
:1024700000B585B00121480400F0EEFB01210846BB
:1024800000F01AFC002168460174C17440200390DA
:1024900003A90920C00600F0F7F90621002000F08A
:1024A0006DFD002168460172102141720121817287
:1024B0004020019001A8FFF797FE072168460170B0
:1024C000002141700121817000F04EFB4020FFF798
:1024D000CFFE05B000BD000010B504462046FFF752
:1024E00067FF2146034800F017FF2146014800F02E
:1024F00024FF10BD0004004070B50446002C0AD132
:1025000000F098FD0020FFF7E7FF002019498870D0
:102510000871204670BD17484078012824D1022C4C
:102520000BDC282060435221081AC5B2284600F06F
:1025300067F80120FFF7D0FF14E00A2C0DDB0E2C0A
:102540000BDC0A2060438E21081AC5B2284600F031
:1025500057F80120FFF7C0FF04E00020FFF7BCFFA1
:10256000FF20D7E72046D5E70020FFF7B5FFFF2083
:10257000D0E700004C04002010B586B000240121F3
:10258000880400F069FB0121022000F075FB0120A6
:10259000019002216846017203214172002181727B
:1025A0000121C17201A9124800F06EF90122002137
:1025B0000F4800F0BBF90F490F480068FDF794FD84
:1025C000401E84B20494002168468181C1818182C9
:1025D000817503A9094800F0C1FE0021074800F0F9
:1025E0009BFE0021054800F0A8FE06B010BD0000CB
:1025F0000004004890AA010064000020000400408C
:1026000070B586B00446124912480068FDF76CFDAB
:10261000401E85B2691E614308466421FDF764FDD2
:1026200086B27021684681800121C1800421018128
:102630000221018200214182FF210131818200219A
:10264000C182039601A9044800F00AFE06B070BDDD
:1026500090AA0100640000200004004070B5044608
:102660000D460C490888C10F0918C905090E094A09
:10267000118010460078084988711146087800F0EA
:1026800031F8002802D10A200349087100200149CD
:10269000088070BD2A0000204C0400201FB50121D5
:1026A000480400F0D9FA002168460173C173802004
:1026B000029002A90920C00600F0E6F807210020D8
:1026C00000F05CFC0021684601710C214171012180
:1026D0008171802000906846FFF786FD8020FFF71B
:1026E000C7FD1FBDFEB50446002727488078002897
:1026F00001DC0020FEBD24488078022805DC224849
:1027000080788000C01EC7B210E01F4880780A2879
:1027100001DA0020EEE71C4880780E2804DC1A4815
:1027200080780938C7B201E00020E3E7B900174A12
:102730005058FDF71BFD0546154A164BFDF762FD87
:1027400001910090FDF726FDC0B2A04214DCB90053
:102750000E4A5058FDF70AFD05460F4A0F4BFDF78C
:1027600051FD01910090FDF715FDC0B2A04203DBC1
:1027700001200B490870BDE7002000F05BFC002041
:102780000749087000BFB5E74C0400202C0000206A
:10279000CDCCCCCCCCCCEC3F9A9999999999F13F7E
:1027A000440000201CB5044607A103C90191009014
:1027B00068460471052101F0DBF86946487106227C
:1027C0000020FEF7DFFA1CBD11040E01000000001E
:1027D00010B5044B002204497D20C000FEF7C2FD65
:1027E00010BD0000290000205D260008FEB505464A
:1027F0000E46122D0FD13046FFF77EFE0446FF2C09
:1028000003D012488470047116E0FF200F498870CD
:102810000A20087110E0132D06D1304600F00AFCA2
:1028200004460A48C47007E0152D05D13046FFF76D
:1028300093FD044605484471092204496846FDF7A2
:1028400069FC684607C8FEF7B3FCFEBD4C040020D7
:1028500010B5FFF7D7FDFFF7BBFF10BD014880792A
:10286000704700004C04002000487047BE00002064
:10287000004870478C000020004870477800002016
:102880000185704781617047F0B50A460021002339
:10289000002400BF3DE001258D402B4615681D40FA
:1028A0002C469C4234D11579012D02D01579022D88
:1028B00016D185684F000326BE40B5438560557923
:1028C0004E00B540866835438560858801268E4078
:1028D000B5438580858896798E40B6B2354385802C
:1028E00005684F000326BE40B543056015794E00CC
:1028F000B540066835430560C5684F000326BE40F5
:10290000B543C560D5794E00B540C6683543C5604E
:10291000491C1029BFD3F0BD02460020138A0B408A
:10292000002B01D0012000E000207047F0B500230B
:1029300000244D07EE0E1546B5402B46CD10AE00D7
:1029400005462035AD594E07F70E0F26BE40B5435C
:10295000CE10B60007462037BD51CD10AE003D4623
:10296000AD591D432C46CD10AD003E467451F0BD0F
:1029700001460120002904D0012904D0022904D1F4
:1029800002E0002003E002E001E0012000BF00BF00
:102990007047FEF7E1FCFEF71DF8FFF747FBFEF777
:1029A000E9FB00BFFEF77CFCFEF748FDFAE710B537
:1029B00000F0BAF8012000F097F8012000F0A4F828
:1029C000012000F07FF810BDF0B599B00646002058
:1029D000189000F048FDFDF7F1FF364908603648D1
:1029E0000078FEF76BFD002E0BD10024002118A803
:1029F000017041708170C17018A9204600F028FE56
:102A00000BE00024002118A801704170817008219A
:102A1000C17018A9204600F01BFE2224002118A82E
:102A20000170417015218170E021C17018A9204604
:102A300000F00EFE6C24152118A8017000214170D1
:102A4000802181700121C17018A9204600F000FE8C
:102A50006420FFF72DFB2224002118A8017041708B
:102A6000692181701421C17018A9204600F0F0FD81
:102A70001248007801281BD10025002760216846F4
:102A8000FDF761FB00BF0BE01B20FFF711FB4120AE
:102A900000F066FD0746380E69464855681CC5B209
:102AA000602DF1DB602269460548FDF733FB00BF6E
:102AB00019B0F0BD000000200C0000200E00002026
:102AC000BE00002010B50446002C06D001210903E9
:102AD0000920C006FFF7D6FE05E001210903092001
:102AE000C006FFF7CDFE10BD10B50446002C04D083
:102AF00040210448FFF7C6FE03E040210148FFF7EC
:102B0000BFFE10BD0004004810B50446002C04D0E0
:102B100010210448FFF7B6FE03E010210148FFF73B
:102B2000AFFE10BD000400481CB501210320400485
:102B300000F092F8502000900121684601710021B8
:102B40008171032141710021C17169460548FFF778
:102B50009BFE01200003009069460920C006FFF794
:102B600093FE1CBD0004004800218278002A27D073
:102B7000184A03231B02D21803789B109B00D158DC
:102B800002789207D30EFF229A400B4693431946D0
:102B900042789207120E03789B07DB0E9A4011438E
:102BA0000C4A03231B02D21803789B109B00D150C0
:102BB0000278D306DB0E01229A40064B1A6007E02A
:102BC0000278D306DB0E01229A40024B80331A6052
:102BD0007047000000E100E01CB5044600940021AD
:102BE000684601711021417101218171FFF7FCFAE2
:102BF0001CBD000010B502460020154B1868800867
:102C00008000034613431846114B1860114B1B6993
:102C1000042423430F4C2361012907D130BF2346ED
:102C20001B690424A3430B4C23610FE0022907D145
:102C300020BF084B1B690424A343064C236105E015
:102C4000044B1B6902242343024C236110BD000086
:102C50000070004000ED00E0002905D0054A5269EF
:102C60000243044B5A6104E0024A52698243014B19
:102C70005A61704700100240002905D0054AD26908
:102C80000243044BDA6104E0024AD2698243014BF9
:102C9000DA61704700100240002905D0054A126928
:102CA0000243044B1A6104E0024A12698243014B59
:102CB0001A61704700100240002905D0054A926948
:102CC0000243044B9A6104E0024A92698243014B39
:102CD0009A61704700100240002905D0054AD26869
:102CE0000243044BDA6004E0024AD2688243014B9B
:102CF000DA60704700100240FEB50446002500204F
:102D000002900027002601900090774840680C212F
:102D100008400546002D04D0042D05D0082D2BD1E8
:102D200005E0724820602AE07048206027E06E4885
:102D300040680F218904084006466B48406803211B
:102D4000C90308400190B00C861C0198002804D1EA
:102D500030466749484300900BE06348C06A00076B
:102D6000000F401C029061480299FDF7BDF97043C5
:102D700000900098206002E05C48206000BF00BF27
:102D800059484068F021084005462D095948475DDB
:102D90002068F840606054484068072109020840F4
:102DA00005462D0A5348475D6068F840A0604E48CC
:102DB000006BFF2101310840884202D04E48E0609C
:102DC0000DE049484068012189030840884203D04A
:102DD000A0684008E06002E0A0688008E060424827
:102DE000006B10210840102802D04048606101E0CB
:102DF000206860613C48006B8007800F002802D18A
:102E0000A068A06119E03848006B8007800F012896
:102E100002D12068A06110E03348006B8007800F6A
:102E2000022802D18003A06107E02F48006B8007D1
:102E3000800F032801D12D48A0612B48006B03218E
:102E400009040840002802D1A068E06120E026487B
:102E5000006B03210904084001210904884202D1C2
:102E60002068E06114E02048006B03210904084059
:102E700001214904884202D18010E06108E01A482B
:102E8000006B032109040840884201D11748E06122
:102E90001548006B032189040840002802D1A0686E
:102EA000206220E01048006B0321890408400121C2
:102EB0008904884202D12068206214E00A48006B2D
:102EC0000321890408400121C904884202D100116C
:102ED000206208E00448006B03218904084088420E
:102EE00001D102482062FEBD0010024000127A00AB
:102EF00000093D0054000020809FD50011201D498D
:102F000008601D4840681C494860084640684860A1
:102F1000084640687B21C903884317494860084632
:102F200040680521C9040843134948600846006801
:102F30000121090608431049086000BF0E480068D7
:102F40000121490608400028F8D00B484068800855
:102F50008000094948600846406802210843064944
:102F6000486000BF044840680C2108400828F9D197
:102F700070470000002002400010024030B50022DF
:102F80008B071C0F0F23A3401A460B4B8C10A40079
:102F90001B599343084C8D10AD00635123468C1090
:102FA000A4001B598C07250F0446AC402343024C58
:102FB0008D10AD00635130BD0800014010B500F028
:102FC00013F800F077F810BD10B50446002C04D0BB
:102FD00080210448FFF756FC03E080210148FFF7F9
:102FE0004FFC10BD000400481CB501218804FFF708
:102FF00033FE802000900121684601710321417158
:1030000000218171C17169460148FFF73DFC1CBD7B
:103010000004004810B504462046FFF7D5FF2146BE
:103020000120800700F078F921460120800700F098
:1030300084F910BD70B50446002C06D1FFF7EAFFF5
:1030400000201A49C870E0B270BD184840780128C5
:1030500026D117480078012822D1022C0BD8A000D5
:1030600020182D21081AC5B2284600F067F8012063
:10307000FFF7D0FF12E0172C0BD8A0002018732107
:10308000081AC5B2284600F059F80120FFF7C2FF20
:1030900004E00020FFF7BEFFFF20D5E7E0B2D3E752
:1030A0000020FFF7B7FFFF20CEE700004C04002010
:1030B0004400002010B586B0002401218804FFF7E9
:1030C000CBFD01210846FFF7D7FD08200190022122
:1030D0006846017203214172002181720121C1728F
:1030E00001A91348FFF7D0FB022203211048FFF784
:1030F0001DFC104910480068FCF7F6FF401E84B222
:103100000494002168468181C1818182817503A96F
:103110000120800700F022F900210120800700F043
:10312000FBF800210120800700F007F906B010BD70
:103130000004004890AA01006400002070B586B029
:103140000446134913480068FCF7CEFF401E85B2C1
:10315000691E614308466421FCF7C6FF86B27021F0
:10316000684681800121C180042101810221018200
:1031700000214182FF21013181820021C182039619
:1031800001A90120800700F007F806B070BD00001B
:1031900090AA01006400002070B502460B4600268C
:1031A000002400251888602809D1108810210840C3
:1031B000102804D1104600F0BDF8002841D1108C31
:1031C000204908401084148C9588168B1E480640B0
:1031D0001E48064018780006000C064319481038AF
:1031E000044098890005000C044358880005000C31
:1031F00004431748824202D0164882421CD1164826
:103200000540188A8004000C05431148824213D1FE
:103210000C4870380440D8890005000C0443094864
:103220003038044098880005000C04430B480540E2
:10323000588A8004000C0543958016839868906333
:10324000148470BDEFFF0000FF8F0000FFFC000042
:10325000002C014000400140FFFB0000FFF7000090
:1032600070B502460B460026002400251888602809
:1032700009D1108810210840102804D1104600F010
:1032800059F8002838D1108C1C4908401084148C3F
:103290009588968B1948903006401848FD300640B6
:1032A0001888064316480440187B0006000C0443A7
:1032B00098780006000C04431248824217D1124845
:1032C0000440987B0006000C044310480440187921
:1032D0000006000C04430E4805400E480540188ABD
:1032E0000005000C0543588A0005000C0543958035
:1032F00096839868D063148470BD0000FFFE0000C0
:10330000FFFD0000002C0140FFF70000FFFB000064
:10331000FFEF0000FFDF0000002904D00288012336
:103320001A43028003E00288014B1A400280704772
:10333000FEFF00000146088D7047002907D0442297
:10334000125A0123DB031A4344231A5205E0442294
:10335000125A53045B0C4422135270470022028815
:10336000184B984206D001239B07984202D0164B77
:10337000984203D1154B1A404B881A43144B98427C
:1033800003D0144B1A400B891A4302804B68C36266
:103390000B8803850B4B984208D00F4B984205D001
:1033A0000E4B984202D00E4B984208D14B88102BFE
:1033B00003D18B7A5B1C038601E08B7A03860123A1
:1033C00083827047002C0140000400408FFF000002
:1033D00000100040FFFC000000400140004401409C
:1033E0000048014004480068002804D002480068F2
:1033F000401E01490860704710000020F0B50246E9
:103400005618701E00260670002318E0D45C0025B4
:1034100012E00678F611E707FF0F7E40002E05D078
:103420000678760007277E40067003E00678760669
:10343000360E067064106D1C082DEADB5B1C4E1EF8
:103440009E42E3DCF0BD38B5002000906C240421DE
:1034500068460170002141708170C1706946204644
:1034600000F0F6F838BD38B50020009000240021A7
:103470006846017041708170C1706946204600F055
:10348000E7F8032400216846017041708170C17023
:103490006946204600F0DCF81024002168460170DF
:1034A00007214170042181700021C17069462046C6
:1034B00000F0CEF81124002168460170417081703F
:1034C0001421C1706946204600F0C2F82224002170
:1034D0006846017041708170C1706946204600F0F5
:1034E000B7F8422400216846017041708170C170B4
:1034F0006946204600F0ACF86C240421684601704F
:10350000002141708170C1706946204600F0A0F82A
:103510007024C421684601700D2141701021817012
:103520002421C1706946204600F092F8142400213D
:1035300068460170417081701521C170694620464E
:1035400000F086F8402400216846017041708170C7
:103550000B21C1706946204600F07AF838BD0000A2
:103560007FB5054600240020039002900090019052
:1035700000260521684601730021417385730421EB
:1035800003A8FFF73BFF00BF19E003A8015D2C482B
:1035900000F0FFF900BF4021294800F08DFA002813
:1035A000F9D0274800F0F0F902A9085500BF4021E2
:1035B000234800F081FA0028F9D0601CC4B2042C22
:1035C000E3DB01221F491E4800F005FB00BF40213C
:1035D0001B4800F071FA0028F9D00520FEF768FDBD
:1035E00000201949087000221649154800F0F3FA26
:1035F000082216496846FCF78DFD08216846FFF74A
:10360000FDFE6846C0791149C979884215D16846DE
:103610000078052811D168464078FF280DD1694609
:10362000887900064979090408436946097909023D
:1036300008436946C97808430646304604B070BD61
:1036400000440040050105001B0000201C00002074
:103650007FB506460C46002500200290039000909E
:103660000190052168460172002141728020314697
:103670000143684681722178C17261780173A17833
:103680004173E1788173082102A8FFF7B7FE00BFFC
:1036900019E002A8415D0D4800F07BF900BF402110
:1036A0000A4800F009FA0028F9D0084800F06CF93F
:1036B0006946485500BF4021044800F0FDF9002844
:1036C000F9D0681CC5B2082DE3DB7FBD0044004083
:1036D00010B50C4800680C490968884204D20BA058
:1036E000FDF784F9002010BD064800680649096806
:1036F000401A0B490860642109480068FCF7F4FC93
:10370000C0B2F0E70400002000000020756E766172
:103710006C696420646F6F722074696D650A0000C3
:103720000800002010B50446002C02D0012C13D153
:103730000AE00B48C068002805D009484189C268E2
:10374000FF383738904708E005480069002802D064
:1037500003490869804700E000BF00BF10BD0000BA
:10376000F808002002468A4202D1FF20013006E01C
:103770008A4203DDCB1DF933981A00E0881A70479E
:10378000F8B506460C460020009000273649304622
:1037900000F042FA00282AD02021304600F08CF9AF
:1037A000002824D0304600F0EFF8C5B2092080018F
:1037B00020188088FF21413188420FDA09208001DA
:1037C00020188188E01DFD30455409208001201813
:1037D0008088401C092189016118888009208001A6
:1037E0002018C088092189016118088101271F4913
:1037F000304600F011FA00282FD08021304600F02A
:103800005BF9002829D0FF200330015B801E005B9C
:10381000814207D100221549304600F0DCF9012031
:10382000009019E0FF200330005B401C81B2FF20B4
:10383000033001530146085BC117090E091809122C
:103840000902411A8AB2FF2103310A530846005B7C
:10385000215C304600F09DF80127002F02D1304650
:1038600000F092F80098F8BD050105000701070077
:10387000F7B582B0044615460020019000BF002D28
:1038800000D171E0FF200130854202D31920019060
:103890006AE0FF220332115B921E105BFFF762FFAA
:1038A0000746AF4202D81A2001905DE0FF200130A8
:1038B000005B401C81B2FF20013001530146085BD0
:1038C000C117090E091809120902411A8AB2FF210B
:1038D00001310A530846015B801C005B814210DA0B
:1038E000FF210131095B08192A460399FCF712FCF4
:1038F000FF200130005B401981B2FF2001300153ED
:1039000029E0FF200130005BFF2101310E1AAE4299
:103910000ED3095B08192A460399FCF7FBFBFF202D
:103920000130005B401981B2FF200130015312E0E9
:10393000FF210131095B081932460399FCF7EAFBC4
:10394000AA1B039881192046FCF7E4FBA81B81B24F
:10395000FF2001300153FF200130005B401E81B287
:10396000FF200130015300BF00BF019805B0F0BD3A
:1039700010B503464C1EE0B2002202E09C5C6040A1
:10398000521C8A42FADB10BD0146888CC005C00D6E
:103990007047CA05D20D02857047000010B5044675
:1039A0003248844209D101218803FFF795F90021AB
:1039B00001208003FFF790F956E02D48844209D199
:1039C00001214804FFF768F9002101204004FFF7B6
:1039D00063F949E02748844209D101218804FFF7AF
:1039E0005BF9002101208004FFF756F93CE02248F2
:1039F000844209D10121C804FFF74EF900210120BA
:103A0000C004FFF749F92FE01C48844209D1012185
:103A10000805FFF741F9002101200005FFF73CF9F7
:103A200022E01748844208D101212020FFF754F9F1
:103A300000212020FFF750F916E01248844208D1F7
:103A400001214020FFF748F900214020FFF744F909
:103A50000AE00D48844207D101218020FFF73CF99C
:103A600000218020FFF738F910BD00000038014028
:103A70000044004000480040004C0040005000401E
:103A80000014014000180140001C0140002A03D02E
:103A900003680B43036002E003688B4303607047D5
:103AA000002904D0026801231A43026003E002687F
:103AB000520852000260704702460020D3690B4052
:103AC000002B01D0012000E000207047F0B58BB042
:103AD00004460D46002700200A9000262068400872
:103AE000400020606668032109033046884306468B
:103AF000A8680643666026682D480640E96868683D
:103B000008432969084306432660A6680321090281
:103B100030468843064668690643A6606846FFF754
:103B2000EBF82448844202D106980A900DE022481E
:103B3000844202D107980A9007E02048844202D1CB
:103B400008980A9001E002980A9020680121C903B0
:103B5000084000280CD029680A9A5000FCF7C4FAE3
:103B6000074629680A9A5000FCF7BEFA0E4609E09B
:103B700029680A98FCF7B8FA074629680A98FCF7FA
:103B8000B3FA0E4628684008B04200D87F1C20686F
:103B90000121C9030840002806D03807460F3846DF
:103BA0000749084030430746A7810BB0F0BD00002D
:103BB000F3E9FFFF003801400044004000480040A6
:103BC000F0FF000010B5002300220B0C01249C40E4
:103BD0002246026210BDF8B5034600240026009676
:103BE0000025002018460E04340ECEB200960127A0
:103BF000009EB7403D46022C01D1001D02E0032C7F
:103C000000D10830002A03D006682E43066002E087
:103C10000668AE430660F8BD70B502460B46002448
:103C20000021002500201E04350ED9B201268E4049
:103C30003146012D02D11668314006E0022D02D135
:103C40005668314001E0966831401C0C0126A640C0
:103C50003446D6693440002903D0002C01D001201D
:103C600000E0002070BD002904D0026802231A433E
:103C7000026003E0026802239A4302607047826890
:103C800003231B059A43826082680A43826070475F
:103C900010B500BF0F4800780028FBD000210E4867
:103CA000FFF7E1FF00BF20210B48FFF705FF0028C9
:103CB000F9D0002208210848FFF7E8FE00BF4021A4
:103CC0000548FFF7F9FE0028F9D000210248FFF768
:103CD000E7FE10BD450000200038014000380140DB
:103CE000003D000800000020780000007216000867
:103CF000783D000878000020981200008216000825
:103D000000000000000000000000000000000000B3
:103D100000000000000000000000000000000000A3
:103D20000000000000000000000000000000000093
:103D3000560000006E0000007B0000008D000000B7
:103D4000A2000000000000000000000000000000D1
:103D5000000000000000000001020304010203044F
:103D600006070809006CDC020000000000000000EB
:083D7000010203040607080923
:04000005080000B936
:00000001FF
